{
    "contractName": "CustomerAccount",
    "abi": [
        {
            "constant": true,
            "inputs": [],
            "name": "getInfo",
            "outputs": [
                {
                    "name": "",
                    "type": "address"
                },
                {
                    "name": "",
                    "type": "bool"
                },
                {
                    "name": "",
                    "type": "uint256"
                },
                {
                    "name": "",
                    "type": "string"
                },
                {
                    "name": "",
                    "type": "string"
                }
            ],
            "payable": false,
            "stateMutability": "view",
            "type": "function"
        },
        {
            "constant": false,
            "inputs": [
                {
                    "name": "newOwner",
                    "type": "address"
                },
                {
                    "name": "newAccountStatus",
                    "type": "bool"
                },
                {
                    "name": "newAccountBalance",
                    "type": "uint256"
                },
                {
                    "name": "newCustomerName",
                    "type": "string"
                },
                {
                    "name": "newCustomerLastName",
                    "type": "string"
                }
            ],
            "name": "setInfo",
            "outputs": [],
            "payable": false,
            "stateMutability": "nonpayable",
            "type": "function"
        }
    ],
    "bytecode": "608060405234801561001057600080fd5b506105ca806100206000396000f3fe60806040526004361061004b5763ffffffff7c01000000000000000000000000000000000000000000000000000000006000350416635a9b0b898114610050578063de1f950b14610188575b600080fd5b34801561005c57600080fd5b506100656102ef565b604051808673ffffffffffffffffffffffffffffffffffffffff1673ffffffffffffffffffffffffffffffffffffffff168152602001851515151581526020018481526020018060200180602001838103835285818151815260200191508051906020019080838360005b838110156100e85781810151838201526020016100d0565b50505050905090810190601f1680156101155780820380516001836020036101000a031916815260200191505b50838103825284518152845160209182019186019080838360005b83811015610148578181015183820152602001610130565b50505050905090810190601f1680156101755780820380516001836020036101000a031916815260200191505b5097505050505050505060405180910390f35b34801561019457600080fd5b506102ed600480360360a08110156101ab57600080fd5b73ffffffffffffffffffffffffffffffffffffffff823516916020810135151591604082013591908101906080810160608201356401000000008111156101f157600080fd5b82018360208201111561020357600080fd5b8035906020019184600183028401116401000000008311171561022557600080fd5b91908080601f016020809104026020016040519081016040528093929190818152602001838380828437600092019190915250929594936020810193503591505064010000000081111561027857600080fd5b82018360208201111561028a57600080fd5b803590602001918460018302840111640100000000831117156102ac57600080fd5b91908080601f016020809104026020016040519081016040528093929190818152602001838380828437600092019190915250929550610467945050505050565b005b600080546001805460028054604080516020610100968416159690960260001901909216839004601f810186900486028301860190915280825286958695606095869573ffffffffffffffffffffffffffffffffffffffff8416957401000000000000000000000000000000000000000090940460ff16949193909260039284918301828280156103c15780601f10610396576101008083540402835291602001916103c1565b820191906000526020600020905b8154815290600101906020018083116103a457829003601f168201915b5050845460408051602060026001851615610100026000190190941693909304601f81018490048402820184019092528181529597508694509250840190508282801561044f5780601f106104245761010080835404028352916020019161044f565b820191906000526020600020905b81548152906001019060200180831161043257829003601f168201915b50505050509050945094509450945094509091929394565b6000805473ffffffffffffffffffffffffffffffffffffffff191673ffffffffffffffffffffffffffffffffffffffff87161774ff000000000000000000000000000000000000000019167401000000000000000000000000000000000000000086151502179055600183905581516104e7906002906020850190610503565b5080516104fb906003906020840190610503565b505050505050565b828054600181600116156101000203166002900490600052602060002090601f016020900481019282601f1061054457805160ff1916838001178555610571565b82800160010185558215610571579182015b82811115610571578251825591602001919060010190610556565b5061057d929150610581565b5090565b61059b91905b8082111561057d5760008155600101610587565b9056fea165627a7a723058205c0da3e0beedbbb0b54a65f1aa1355450ca1e777736912bf66f36e3780ac02010029",
    "sourcePath": "/Users/michaelcruz/git/solidity/message_contract.sol",
    "compiler": {
        "name": "solc",
        "version": "0.5.0+commit.1d4f565a"
    },
    "functionHashes": {
        "getInfo()": "5a9b0b89",
        "setInfo(address,bool,uint256,string,string)": "de1f950b"
    },
    "gasEstimates": {
        "creation": {
            "codeDepositCost": "296400",
            "executionCost": "337",
            "totalCost": "296737"
        },
        "external": {
            "getInfo()": "infinite",
            "setInfo(address,bool,uint256,string,string)": "infinite"
        }
    }
}